:100000000C9434000C943E000C9440000C943E0080
:100010000C943E000C943E000C943E000C943E0068
:100020000C943E000C943E000C943E000C943E0058
:100030000C943E000C943E000C943E000C943E0048
:100040000C943E000C943E000C943E000C943E0038
:100050000C943E000C943E000C943E000C943E0028
:100060000C943E000C943E0011241FBECFEFD8E04C
:10007000DEBFCDBF0E945D000C946A000C940000AE
:100080001F920F920FB60F9211242F938F939F936D
:10009000F894289A2FEF89E698E12150804090400B
:1000A000E1F700C00000289878949F918F912F91DC
:1000B0000F900FBE0F901F901895209A8CE08093A0
:1000C0006900E99A539888E08BB9789484B18E6F6F
:0800D00084B9FFCFF894FFCFC3
:00000001FF
